{
  "address": "0xC61c7e3209add44D356317f9FA709f53d5884e02",
  "abi": [
    {
      "inputs": [],
      "stateMutability": "nonpayable",
      "type": "constructor"
    },
    {
      "anonymous": false,
      "inputs": [
        {
          "indexed": true,
          "internalType": "address",
          "name": "owner",
          "type": "address"
        },
        {
          "indexed": true,
          "internalType": "address",
          "name": "approved",
          "type": "address"
        },
        {
          "indexed": true,
          "internalType": "uint256",
          "name": "tokenId",
          "type": "uint256"
        }
      ],
      "name": "Approval",
      "type": "event"
    },
    {
      "anonymous": false,
      "inputs": [
        {
          "indexed": true,
          "internalType": "address",
          "name": "owner",
          "type": "address"
        },
        {
          "indexed": true,
          "internalType": "address",
          "name": "operator",
          "type": "address"
        },
        {
          "indexed": false,
          "internalType": "bool",
          "name": "approved",
          "type": "bool"
        }
      ],
      "name": "ApprovalForAll",
      "type": "event"
    },
    {
      "anonymous": false,
      "inputs": [
        {
          "indexed": false,
          "internalType": "uint256",
          "name": "_fromTokenId",
          "type": "uint256"
        },
        {
          "indexed": false,
          "internalType": "uint256",
          "name": "_toTokenId",
          "type": "uint256"
        }
      ],
      "name": "BatchMetadataUpdate",
      "type": "event"
    },
    {
      "anonymous": false,
      "inputs": [
        {
          "indexed": true,
          "internalType": "address",
          "name": "requester",
          "type": "address"
        },
        {
          "indexed": false,
          "internalType": "uint256",
          "name": "tokenId",
          "type": "uint256"
        },
        {
          "indexed": false,
          "internalType": "string",
          "name": "userInput",
          "type": "string"
        }
      ],
      "name": "InputViewed",
      "type": "event"
    },
    {
      "anonymous": false,
      "inputs": [
        {
          "indexed": false,
          "internalType": "uint256",
          "name": "_tokenId",
          "type": "uint256"
        }
      ],
      "name": "MetadataUpdate",
      "type": "event"
    },
    {
      "anonymous": false,
      "inputs": [
        {
          "indexed": true,
          "internalType": "address",
          "name": "to",
          "type": "address"
        },
        {
          "indexed": false,
          "internalType": "uint256",
          "name": "tokenId",
          "type": "uint256"
        }
      ],
      "name": "Minted",
      "type": "event"
    },
    {
      "anonymous": false,
      "inputs": [
        {
          "indexed": true,
          "internalType": "address",
          "name": "from",
          "type": "address"
        },
        {
          "indexed": true,
          "internalType": "address",
          "name": "to",
          "type": "address"
        },
        {
          "indexed": true,
          "internalType": "uint256",
          "name": "tokenId",
          "type": "uint256"
        }
      ],
      "name": "Transfer",
      "type": "event"
    },
    {
      "inputs": [],
      "name": "_tokenId",
      "outputs": [
        {
          "internalType": "uint256",
          "name": "",
          "type": "uint256"
        }
      ],
      "stateMutability": "view",
      "type": "function"
    },
    {
      "inputs": [
        {
          "internalType": "address",
          "name": "to",
          "type": "address"
        },
        {
          "internalType": "uint256",
          "name": "tokenId",
          "type": "uint256"
        }
      ],
      "name": "approve",
      "outputs": [],
      "stateMutability": "nonpayable",
      "type": "function"
    },
    {
      "inputs": [
        {
          "internalType": "address",
          "name": "owner",
          "type": "address"
        }
      ],
      "name": "balanceOf",
      "outputs": [
        {
          "internalType": "uint256",
          "name": "",
          "type": "uint256"
        }
      ],
      "stateMutability": "view",
      "type": "function"
    },
    {
      "inputs": [
        {
          "internalType": "uint256",
          "name": "tokenId",
          "type": "uint256"
        }
      ],
      "name": "getApproved",
      "outputs": [
        {
          "internalType": "address",
          "name": "",
          "type": "address"
        }
      ],
      "stateMutability": "view",
      "type": "function"
    },
    {
      "inputs": [
        {
          "internalType": "address",
          "name": "owner",
          "type": "address"
        },
        {
          "internalType": "address",
          "name": "operator",
          "type": "address"
        }
      ],
      "name": "isApprovedForAll",
      "outputs": [
        {
          "internalType": "bool",
          "name": "",
          "type": "bool"
        }
      ],
      "stateMutability": "view",
      "type": "function"
    },
    {
      "inputs": [
        {
          "internalType": "string",
          "name": "tokenURI",
          "type": "string"
        },
        {
          "internalType": "string",
          "name": "userOutput",
          "type": "string"
        },
        {
          "internalType": "string",
          "name": "userInput",
          "type": "string"
        }
      ],
      "name": "mint",
      "outputs": [],
      "stateMutability": "nonpayable",
      "type": "function"
    },
    {
      "inputs": [],
      "name": "name",
      "outputs": [
        {
          "internalType": "string",
          "name": "",
          "type": "string"
        }
      ],
      "stateMutability": "view",
      "type": "function"
    },
    {
      "inputs": [
        {
          "internalType": "uint256",
          "name": "",
          "type": "uint256"
        }
      ],
      "name": "output",
      "outputs": [
        {
          "internalType": "string",
          "name": "",
          "type": "string"
        }
      ],
      "stateMutability": "view",
      "type": "function"
    },
    {
      "inputs": [
        {
          "internalType": "uint256",
          "name": "tokenId",
          "type": "uint256"
        }
      ],
      "name": "ownerOf",
      "outputs": [
        {
          "internalType": "address",
          "name": "",
          "type": "address"
        }
      ],
      "stateMutability": "view",
      "type": "function"
    },
    {
      "inputs": [
        {
          "internalType": "address",
          "name": "from",
          "type": "address"
        },
        {
          "internalType": "address",
          "name": "to",
          "type": "address"
        },
        {
          "internalType": "uint256",
          "name": "tokenId",
          "type": "uint256"
        }
      ],
      "name": "safeTransferFrom",
      "outputs": [],
      "stateMutability": "nonpayable",
      "type": "function"
    },
    {
      "inputs": [
        {
          "internalType": "address",
          "name": "from",
          "type": "address"
        },
        {
          "internalType": "address",
          "name": "to",
          "type": "address"
        },
        {
          "internalType": "uint256",
          "name": "tokenId",
          "type": "uint256"
        },
        {
          "internalType": "bytes",
          "name": "data",
          "type": "bytes"
        }
      ],
      "name": "safeTransferFrom",
      "outputs": [],
      "stateMutability": "nonpayable",
      "type": "function"
    },
    {
      "inputs": [
        {
          "internalType": "address",
          "name": "",
          "type": "address"
        }
      ],
      "name": "sellCount",
      "outputs": [
        {
          "internalType": "uint256",
          "name": "",
          "type": "uint256"
        }
      ],
      "stateMutability": "view",
      "type": "function"
    },
    {
      "inputs": [
        {
          "internalType": "address",
          "name": "operator",
          "type": "address"
        },
        {
          "internalType": "bool",
          "name": "approved",
          "type": "bool"
        }
      ],
      "name": "setApprovalForAll",
      "outputs": [],
      "stateMutability": "nonpayable",
      "type": "function"
    },
    {
      "inputs": [
        {
          "internalType": "address",
          "name": "",
          "type": "address"
        }
      ],
      "name": "successCount",
      "outputs": [
        {
          "internalType": "uint256",
          "name": "",
          "type": "uint256"
        }
      ],
      "stateMutability": "view",
      "type": "function"
    },
    {
      "inputs": [
        {
          "internalType": "bytes4",
          "name": "interfaceId",
          "type": "bytes4"
        }
      ],
      "name": "supportsInterface",
      "outputs": [
        {
          "internalType": "bool",
          "name": "",
          "type": "bool"
        }
      ],
      "stateMutability": "view",
      "type": "function"
    },
    {
      "inputs": [],
      "name": "symbol",
      "outputs": [
        {
          "internalType": "string",
          "name": "",
          "type": "string"
        }
      ],
      "stateMutability": "view",
      "type": "function"
    },
    {
      "inputs": [
        {
          "internalType": "uint256",
          "name": "tokenId",
          "type": "uint256"
        }
      ],
      "name": "tokenURI",
      "outputs": [
        {
          "internalType": "string",
          "name": "",
          "type": "string"
        }
      ],
      "stateMutability": "view",
      "type": "function"
    },
    {
      "inputs": [
        {
          "internalType": "address",
          "name": "from",
          "type": "address"
        },
        {
          "internalType": "address",
          "name": "to",
          "type": "address"
        },
        {
          "internalType": "uint256",
          "name": "tokenId",
          "type": "uint256"
        }
      ],
      "name": "transferFrom",
      "outputs": [],
      "stateMutability": "nonpayable",
      "type": "function"
    },
    {
      "inputs": [
        {
          "internalType": "uint256",
          "name": "tokenId",
          "type": "uint256"
        }
      ],
      "name": "viewInput",
      "outputs": [
        {
          "internalType": "string",
          "name": "",
          "type": "string"
        }
      ],
      "stateMutability": "view",
      "type": "function"
    },
    {
      "inputs": [
        {
          "internalType": "uint256",
          "name": "tokenId",
          "type": "uint256"
        }
      ],
      "name": "viewOutput",
      "outputs": [
        {
          "internalType": "string",
          "name": "",
          "type": "string"
        }
      ],
      "stateMutability": "view",
      "type": "function"
    }
  ],
  "transactionHash": "0xb510c119cbc5fac403b39ea00d4381d90ab16e7af51e4df6c95add178fcb2021",
  "args": [],
  "numDeployments": 10,
  "solcInputHash": "038f7a6ffd229b11fcee60460e7a6767",
  "bytecode": "0x60806040523480156200001157600080fd5b506040518060400160405280600a8152602001691499591519585b53919560b21b81525060405180604001604052806003815260200162292a2760e91b815250816000908162000062919062000121565b50600162000071828262000121565b505050620001ed565b634e487b7160e01b600052604160045260246000fd5b600181811c90821680620000a557607f821691505b602082108103620000c657634e487b7160e01b600052602260045260246000fd5b50919050565b601f8211156200011c576000816000526020600020601f850160051c81016020861015620000f75750805b601f850160051c820191505b81811015620001185782815560010162000103565b5050505b505050565b81516001600160401b038111156200013d576200013d6200007a565b62000155816200014e845462000090565b84620000cc565b602080601f8311600181146200018d5760008415620001745750858301515b600019600386901b1c1916600185901b17855562000118565b600085815260208120601f198616915b82811015620001be578886015182559484019460019091019084016200019d565b5085821015620001dd5787850151600019600388901b60f8161c191681555b5050505050600190811b01905550565b611a3e80620001fd6000396000f3fe608060405234801561001057600080fd5b506004361061012c5760003560e01c806370a08231116100ad578063d645ddf611610071578063d645ddf614610278578063e12f36531461028b578063e46f3a43146102ab578063e985e9c5146102be578063f1a51601146102d157600080fd5b806370a082311461022457806395d89b4114610237578063a22cb4651461023f578063b88d4fde14610252578063c87b56dd1461026557600080fd5b806324822514116100f457806324822514146101c157806342842e0e146101d85780636352211e146101eb57806364f9016b146101fe57806366daed971461021157600080fd5b806301ffc9a71461013157806306fdde0314610159578063081812fc1461016e578063095ea7b31461019957806323b872dd146101ae575b600080fd5b61014461013f3660046113ba565b6102f1565b60405190151581526020015b60405180910390f35b61016161031c565b6040516101509190611427565b61018161017c36600461143a565b6103ae565b6040516001600160a01b039091168152602001610150565b6101ac6101a736600461146f565b6103d5565b005b6101ac6101bc366004611499565b6104ef565b6101ca60075481565b604051908152602001610150565b6101ac6101e6366004611499565b610520565b6101816101f936600461143a565b61053b565b61016161020c36600461143a565b61059b565b61016161021f36600461143a565b610635565b6101ca6102323660046114d5565b6106d7565b61016161075d565b6101ac61024d3660046114f0565b61076c565b6101ac6102603660046115b8565b61077b565b61016161027336600461143a565b6107b3565b6101ac610286366004611654565b6108c3565b6101ca6102993660046114d5565b600a6020526000908152604090205481565b6101616102b936600461143a565b61098a565b6101446102cc3660046116dc565b610a10565b6101ca6102df3660046114d5565b600b6020526000908152604090205481565b60006001600160e01b03198216632483248360e11b1480610316575061031682610a3e565b92915050565b60606000805461032b9061170f565b80601f01602080910402602001604051908101604052809291908181526020018280546103579061170f565b80156103a45780601f10610379576101008083540402835291602001916103a4565b820191906000526020600020905b81548152906001019060200180831161038757829003601f168201915b5050505050905090565b60006103b982610a8e565b506000908152600460205260409020546001600160a01b031690565b60006103e08261053b565b9050806001600160a01b0316836001600160a01b0316036104525760405162461bcd60e51b815260206004820152602160248201527f4552433732313a20617070726f76616c20746f2063757272656e74206f776e656044820152603960f91b60648201526084015b60405180910390fd5b336001600160a01b038216148061046e575061046e8133610a10565b6104e05760405162461bcd60e51b815260206004820152603d60248201527f4552433732313a20617070726f76652063616c6c6572206973206e6f7420746f60448201527f6b656e206f776e6572206f7220617070726f76656420666f7220616c6c0000006064820152608401610449565b6104ea8383610af0565b505050565b6104f93382610b5e565b6105155760405162461bcd60e51b815260040161044990611749565b6104ea838383610bbc565b6104ea8383836040518060200160405280600081525061077b565b6000818152600260205260408120546001600160a01b0316806103165760405162461bcd60e51b8152602060048201526018602482015277115490cdcc8c4e881a5b9d985b1a59081d1bdad95b88125160421b6044820152606401610449565b600860205260009081526040902080546105b49061170f565b80601f01602080910402602001604051908101604052809291908181526020018280546105e09061170f565b801561062d5780601f106106025761010080835404028352916020019161062d565b820191906000526020600020905b81548152906001019060200180831161061057829003601f168201915b505050505081565b60008181526008602052604090208054606091906106529061170f565b80601f016020809104026020016040519081016040528092919081815260200182805461067e9061170f565b80156106cb5780601f106106a0576101008083540402835291602001916106cb565b820191906000526020600020905b8154815290600101906020018083116106ae57829003601f168201915b50505050509050919050565b60006001600160a01b0382166107415760405162461bcd60e51b815260206004820152602960248201527f4552433732313a2061646472657373207a65726f206973206e6f7420612076616044820152683634b21037bbb732b960b91b6064820152608401610449565b506001600160a01b031660009081526003602052604090205490565b60606001805461032b9061170f565b610777338383610d20565b5050565b6107853383610b5e565b6107a15760405162461bcd60e51b815260040161044990611749565b6107ad84848484610dee565b50505050565b60606107be82610a8e565b600082815260066020526040812080546107d79061170f565b80601f01602080910402602001604051908101604052809291908181526020018280546108039061170f565b80156108505780601f1061082557610100808354040283529160200191610850565b820191906000526020600020905b81548152906001019060200180831161083357829003601f168201915b50505050509050600061086e60408051602081019091526000815290565b90508051600003610880575092915050565b8151156108b257808260405160200161089a929190611796565b60405160208183030381529060405292505050919050565b6108bb84610e21565b949350505050565b6108cf33600754610e95565b6108db60075484610eaf565b60075460009081526008602052604090206108f68382611815565b5060075460009081526009602052604090206109128282611815565b50336000908152600a602052604081208054600192906109339084906118eb565b909155505060075460405190815233907f30385c845b448a36257a6a1716e6ad2e1bc2cbe333cde1e69fe849ad6511adfe9060200160405180910390a260078054906000610980836118fe565b9190505550505050565b6060336109968361053b565b6001600160a01b0316146109f75760405162461bcd60e51b815260206004820152602260248201527f596f7520617265206e6f7420746865206f776e6572206f662074686973204e466044820152612a1760f11b6064820152608401610449565b600082815260096020526040902080546106529061170f565b6001600160a01b03918216600090815260056020908152604080832093909416825291909152205460ff1690565b60006001600160e01b031982166380ac58cd60e01b1480610a6f57506001600160e01b03198216635b5e139f60e01b145b8061031657506301ffc9a760e01b6001600160e01b0319831614610316565b6000818152600260205260409020546001600160a01b0316610aed5760405162461bcd60e51b8152602060048201526018602482015277115490cdcc8c4e881a5b9d985b1a59081d1bdad95b88125160421b6044820152606401610449565b50565b600081815260046020526040902080546001600160a01b0319166001600160a01b0384169081179091558190610b258261053b565b6001600160a01b03167f8c5be1e5ebec7d5bd14f71427d1e84f3dd0314c0f7b2291e5b200ac8c7c3b92560405160405180910390a45050565b600080610b6a8361053b565b9050806001600160a01b0316846001600160a01b03161480610b915750610b918185610a10565b806108bb5750836001600160a01b0316610baa846103ae565b6001600160a01b031614949350505050565b826001600160a01b0316610bcf8261053b565b6001600160a01b031614610bf55760405162461bcd60e51b815260040161044990611917565b6001600160a01b038216610c575760405162461bcd60e51b8152602060048201526024808201527f4552433732313a207472616e7366657220746f20746865207a65726f206164646044820152637265737360e01b6064820152608401610449565b826001600160a01b0316610c6a8261053b565b6001600160a01b031614610c905760405162461bcd60e51b815260040161044990611917565b600081815260046020908152604080832080546001600160a01b03199081169091556001600160a01b0387811680865260038552838620805460001901905590871680865283862080546001019055868652600290945282852080549092168417909155905184937fddf252ad1be2c89b69c2b068fc378daa952ba7f163c4a11628f55a4df523b3ef91a4505050565b816001600160a01b0316836001600160a01b031603610d815760405162461bcd60e51b815260206004820152601960248201527f4552433732313a20617070726f766520746f2063616c6c6572000000000000006044820152606401610449565b6001600160a01b03838116600081815260056020908152604080832094871680845294825291829020805460ff191686151590811790915591519182527f17307eab39ab6107e8899845ad3d59bd9653f200f220920489ca2b5937696c31910160405180910390a3505050565b610df9848484610bbc565b610e0584848484610f7a565b6107ad5760405162461bcd60e51b81526004016104499061195c565b6060610e2c82610a8e565b6000610e4360408051602081019091526000815290565b90506000815111610e635760405180602001604052806000815250610e8e565b80610e6d8461107b565b604051602001610e7e929190611796565b6040516020818303038152906040525b9392505050565b61077782826040518060200160405280600081525061110e565b6000828152600260205260409020546001600160a01b0316610f2a5760405162461bcd60e51b815260206004820152602e60248201527f45524337323155524953746f726167653a2055524920736574206f66206e6f6e60448201526d32bc34b9ba32b73a103a37b5b2b760911b6064820152608401610449565b6000828152600660205260409020610f428282611815565b506040518281527ff8e1a15aba9398e019f0b49df1a4fde98ee17ae345cb5f6b5e2c27f5033e8ce79060200160405180910390a15050565b60006001600160a01b0384163b1561107057604051630a85bd0160e11b81526001600160a01b0385169063150b7a0290610fbe9033908990889088906004016119ae565b6020604051808303816000875af1925050508015610ff9575060408051601f3d908101601f19168201909252610ff6918101906119eb565b60015b611056573d808015611027576040519150601f19603f3d011682016040523d82523d6000602084013e61102c565b606091505b50805160000361104e5760405162461bcd60e51b81526004016104499061195c565b805181602001fd5b6001600160e01b031916630a85bd0160e11b1490506108bb565b506001949350505050565b6060600061108883611141565b600101905060008167ffffffffffffffff8111156110a8576110a861152c565b6040519080825280601f01601f1916602001820160405280156110d2576020820181803683370190505b5090508181016020015b600019016f181899199a1a9b1b9c1cb0b131b232b360811b600a86061a8153600a85049450846110dc57509392505050565b6111188383611219565b6111256000848484610f7a565b6104ea5760405162461bcd60e51b81526004016104499061195c565b60008072184f03e93ff9f4daa797ed6e38ed64bf6a1f0160401b83106111805772184f03e93ff9f4daa797ed6e38ed64bf6a1f0160401b830492506040015b6d04ee2d6d415b85acef810000000083106111ac576d04ee2d6d415b85acef8100000000830492506020015b662386f26fc1000083106111ca57662386f26fc10000830492506010015b6305f5e10083106111e2576305f5e100830492506008015b61271083106111f657612710830492506004015b60648310611208576064830492506002015b600a83106103165760010192915050565b6001600160a01b03821661126f5760405162461bcd60e51b815260206004820181905260248201527f4552433732313a206d696e7420746f20746865207a65726f20616464726573736044820152606401610449565b6000818152600260205260409020546001600160a01b0316156112d45760405162461bcd60e51b815260206004820152601c60248201527f4552433732313a20746f6b656e20616c7265616479206d696e746564000000006044820152606401610449565b6000818152600260205260409020546001600160a01b0316156113395760405162461bcd60e51b815260206004820152601c60248201527f4552433732313a20746f6b656e20616c7265616479206d696e746564000000006044820152606401610449565b6001600160a01b038216600081815260036020908152604080832080546001019055848352600290915280822080546001600160a01b0319168417905551839291907fddf252ad1be2c89b69c2b068fc378daa952ba7f163c4a11628f55a4df523b3ef908290a45050565b6001600160e01b031981168114610aed57600080fd5b6000602082840312156113cc57600080fd5b8135610e8e816113a4565b60005b838110156113f25781810151838201526020016113da565b50506000910152565b600081518084526114138160208601602086016113d7565b601f01601f19169290920160200192915050565b602081526000610e8e60208301846113fb565b60006020828403121561144c57600080fd5b5035919050565b80356001600160a01b038116811461146a57600080fd5b919050565b6000806040838503121561148257600080fd5b61148b83611453565b946020939093013593505050565b6000806000606084860312156114ae57600080fd5b6114b784611453565b92506114c560208501611453565b9150604084013590509250925092565b6000602082840312156114e757600080fd5b610e8e82611453565b6000806040838503121561150357600080fd5b61150c83611453565b91506020830135801515811461152157600080fd5b809150509250929050565b634e487b7160e01b600052604160045260246000fd5b600067ffffffffffffffff8084111561155d5761155d61152c565b604051601f8501601f19908116603f011681019082821181831017156115855761158561152c565b8160405280935085815286868601111561159e57600080fd5b858560208301376000602087830101525050509392505050565b600080600080608085870312156115ce57600080fd5b6115d785611453565b93506115e560208601611453565b925060408501359150606085013567ffffffffffffffff81111561160857600080fd5b8501601f8101871361161957600080fd5b61162887823560208401611542565b91505092959194509250565b600082601f83011261164557600080fd5b610e8e83833560208501611542565b60008060006060848603121561166957600080fd5b833567ffffffffffffffff8082111561168157600080fd5b61168d87838801611634565b945060208601359150808211156116a357600080fd5b6116af87838801611634565b935060408601359150808211156116c557600080fd5b506116d286828701611634565b9150509250925092565b600080604083850312156116ef57600080fd5b6116f883611453565b915061170660208401611453565b90509250929050565b600181811c9082168061172357607f821691505b60208210810361174357634e487b7160e01b600052602260045260246000fd5b50919050565b6020808252602d908201527f4552433732313a2063616c6c6572206973206e6f7420746f6b656e206f776e6560408201526c1c881bdc88185c1c1c9bdd9959609a1b606082015260800190565b600083516117a88184602088016113d7565b8351908301906117bc8183602088016113d7565b01949350505050565b601f8211156104ea576000816000526020600020601f850160051c810160208610156117ee5750805b601f850160051c820191505b8181101561180d578281556001016117fa565b505050505050565b815167ffffffffffffffff81111561182f5761182f61152c565b6118438161183d845461170f565b846117c5565b602080601f83116001811461187857600084156118605750858301515b600019600386901b1c1916600185901b17855561180d565b600085815260208120601f198616915b828110156118a757888601518255948401946001909101908401611888565b50858210156118c55787850151600019600388901b60f8161c191681555b5050505050600190811b01905550565b634e487b7160e01b600052601160045260246000fd5b80820180821115610316576103166118d5565b600060018201611910576119106118d5565b5060010190565b60208082526025908201527f4552433732313a207472616e736665722066726f6d20696e636f72726563742060408201526437bbb732b960d91b606082015260800190565b60208082526032908201527f4552433732313a207472616e7366657220746f206e6f6e20455243373231526560408201527131b2b4bb32b91034b6b83632b6b2b73a32b960711b606082015260800190565b6001600160a01b03858116825284166020820152604081018390526080606082018190526000906119e1908301846113fb565b9695505050505050565b6000602082840312156119fd57600080fd5b8151610e8e816113a456fea264697066735822122000e04f88b167001d60f36f8556f6d8edfdebdffc51e93642e2203bab80c7505864736f6c63430008180033",
  "devdoc": {
    "events": {
      "Approval(address,address,uint256)": {
        "details": "Emitted when `owner` enables `approved` to manage the `tokenId` token."
      },
      "ApprovalForAll(address,address,bool)": {
        "details": "Emitted when `owner` enables or disables (`approved`) `operator` to manage all of its assets."
      },
      "BatchMetadataUpdate(uint256,uint256)": {
        "details": "This event emits when the metadata of a range of tokens is changed. So that the third-party platforms such as NFT market could timely update the images and related attributes of the NFTs."
      },
      "MetadataUpdate(uint256)": {
        "details": "This event emits when the metadata of a token is changed. So that the third-party platforms such as NFT market could timely update the images and related attributes of the NFT."
      },
      "Transfer(address,address,uint256)": {
        "details": "Emitted when `tokenId` token is transferred from `from` to `to`."
      }
    },
    "kind": "dev",
    "methods": {
      "approve(address,uint256)": {
        "details": "See {IERC721-approve}."
      },
      "balanceOf(address)": {
        "details": "See {IERC721-balanceOf}."
      },
      "getApproved(uint256)": {
        "details": "See {IERC721-getApproved}."
      },
      "isApprovedForAll(address,address)": {
        "details": "See {IERC721-isApprovedForAll}."
      },
      "name()": {
        "details": "See {IERC721Metadata-name}."
      },
      "ownerOf(uint256)": {
        "details": "See {IERC721-ownerOf}."
      },
      "safeTransferFrom(address,address,uint256)": {
        "details": "See {IERC721-safeTransferFrom}."
      },
      "safeTransferFrom(address,address,uint256,bytes)": {
        "details": "See {IERC721-safeTransferFrom}."
      },
      "setApprovalForAll(address,bool)": {
        "details": "See {IERC721-setApprovalForAll}."
      },
      "supportsInterface(bytes4)": {
        "details": "See {IERC165-supportsInterface}"
      },
      "symbol()": {
        "details": "See {IERC721Metadata-symbol}."
      },
      "tokenURI(uint256)": {
        "details": "See {IERC721Metadata-tokenURI}."
      },
      "transferFrom(address,address,uint256)": {
        "details": "See {IERC721-transferFrom}."
      }
    },
    "version": 1
  },
  "userdoc": {
    "kind": "user",
    "methods": {},
    "version": 1
  },
  "storageLayout": {
    "storage": [
      {
        "astId": 166,
        "contract": "contracts/RedTeamNFT.sol:RedTeamNFT",
        "label": "_name",
        "offset": 0,
        "slot": "0",
        "type": "t_string_storage"
      },
      {
        "astId": 168,
        "contract": "contracts/RedTeamNFT.sol:RedTeamNFT",
        "label": "_symbol",
        "offset": 0,
        "slot": "1",
        "type": "t_string_storage"
      },
      {
        "astId": 172,
        "contract": "contracts/RedTeamNFT.sol:RedTeamNFT",
        "label": "_owners",
        "offset": 0,
        "slot": "2",
        "type": "t_mapping(t_uint256,t_address)"
      },
      {
        "astId": 176,
        "contract": "contracts/RedTeamNFT.sol:RedTeamNFT",
        "label": "_balances",
        "offset": 0,
        "slot": "3",
        "type": "t_mapping(t_address,t_uint256)"
      },
      {
        "astId": 180,
        "contract": "contracts/RedTeamNFT.sol:RedTeamNFT",
        "label": "_tokenApprovals",
        "offset": 0,
        "slot": "4",
        "type": "t_mapping(t_uint256,t_address)"
      },
      {
        "astId": 186,
        "contract": "contracts/RedTeamNFT.sol:RedTeamNFT",
        "label": "_operatorApprovals",
        "offset": 0,
        "slot": "5",
        "type": "t_mapping(t_address,t_mapping(t_address,t_bool))"
      },
      {
        "astId": 1217,
        "contract": "contracts/RedTeamNFT.sol:RedTeamNFT",
        "label": "_tokenURIs",
        "offset": 0,
        "slot": "6",
        "type": "t_mapping(t_uint256,t_string_storage)"
      },
      {
        "astId": 2980,
        "contract": "contracts/RedTeamNFT.sol:RedTeamNFT",
        "label": "_tokenId",
        "offset": 0,
        "slot": "7",
        "type": "t_uint256"
      },
      {
        "astId": 2984,
        "contract": "contracts/RedTeamNFT.sol:RedTeamNFT",
        "label": "output",
        "offset": 0,
        "slot": "8",
        "type": "t_mapping(t_uint256,t_string_storage)"
      },
      {
        "astId": 2988,
        "contract": "contracts/RedTeamNFT.sol:RedTeamNFT",
        "label": "_input",
        "offset": 0,
        "slot": "9",
        "type": "t_mapping(t_uint256,t_string_storage)"
      },
      {
        "astId": 2992,
        "contract": "contracts/RedTeamNFT.sol:RedTeamNFT",
        "label": "successCount",
        "offset": 0,
        "slot": "10",
        "type": "t_mapping(t_address,t_uint256)"
      },
      {
        "astId": 2996,
        "contract": "contracts/RedTeamNFT.sol:RedTeamNFT",
        "label": "sellCount",
        "offset": 0,
        "slot": "11",
        "type": "t_mapping(t_address,t_uint256)"
      }
    ],
    "types": {
      "t_address": {
        "encoding": "inplace",
        "label": "address",
        "numberOfBytes": "20"
      },
      "t_bool": {
        "encoding": "inplace",
        "label": "bool",
        "numberOfBytes": "1"
      },
      "t_mapping(t_address,t_bool)": {
        "encoding": "mapping",
        "key": "t_address",
        "label": "mapping(address => bool)",
        "numberOfBytes": "32",
        "value": "t_bool"
      },
      "t_mapping(t_address,t_mapping(t_address,t_bool))": {
        "encoding": "mapping",
        "key": "t_address",
        "label": "mapping(address => mapping(address => bool))",
        "numberOfBytes": "32",
        "value": "t_mapping(t_address,t_bool)"
      },
      "t_mapping(t_address,t_uint256)": {
        "encoding": "mapping",
        "key": "t_address",
        "label": "mapping(address => uint256)",
        "numberOfBytes": "32",
        "value": "t_uint256"
      },
      "t_mapping(t_uint256,t_address)": {
        "encoding": "mapping",
        "key": "t_uint256",
        "label": "mapping(uint256 => address)",
        "numberOfBytes": "32",
        "value": "t_address"
      },
      "t_mapping(t_uint256,t_string_storage)": {
        "encoding": "mapping",
        "key": "t_uint256",
        "label": "mapping(uint256 => string)",
        "numberOfBytes": "32",
        "value": "t_string_storage"
      },
      "t_string_storage": {
        "encoding": "bytes",
        "label": "string",
        "numberOfBytes": "32"
      },
      "t_uint256": {
        "encoding": "inplace",
        "label": "uint256",
        "numberOfBytes": "32"
      }
    }
  }
}